:100000000C9434000C943E000C943E000C943E0082
:100010000C943E000C943E000C943E000C943E0068
:100020000C943E000C943E000C943E000C943E0058
:100030000C943E000C943E000C943E000C943E0048
:100040000C943E000C943E000C943E000C943E0038
:100050000C943E000C943E000C943E000C943E0028
:100060000C943E000C943E0011241FBECFEFD8E04C
:10007000DEBFCDBF0E944D000C948C000C9400009C
:1000800087B1807C87B984B18F7E84B984B1856063
:1000900084B98AB184638AB908950E94400090E0CF
:1000A000319B1FC0329B1FC0339B1FC0349B1FC09E
:1000B00085B1816085B98BB180638BB9911118C00E
:1000C0008BB184608BB92FEF8BE792E92150804090
:1000D0009040E1F700C000008BB18B7F8BB991E0BD
:1000E00007C090E005C090E003C090E001C090E040
:1000F000359902C01C9B06C085B18E7F85B98BB136
:100100008F7C8BB9309B04C085B1846085B9C8CF22
:0C01100085B18B7F85B9C4CFF894FFCF78
:00000001FF
